{
  "contractName": "BitmaskRBAC",
  "abi": [
    {
      "constant": true,
      "inputs": [
        {
          "name": "",
          "type": "uint256"
        }
      ],
      "name": "userList",
      "outputs": [
        {
          "name": "",
          "type": "address"
        }
      ],
      "payable": false,
      "stateMutability": "view",
      "type": "function"
    },
    {
      "constant": true,
      "inputs": [],
      "name": "ROLE_RBAC_ADMIN",
      "outputs": [
        {
          "name": "",
          "type": "string"
        }
      ],
      "payable": false,
      "stateMutability": "view",
      "type": "function"
    },
    {
      "constant": true,
      "inputs": [
        {
          "name": "",
          "type": "uint256"
        }
      ],
      "name": "supportedRoleList",
      "outputs": [
        {
          "name": "",
          "type": "string"
        }
      ],
      "payable": false,
      "stateMutability": "view",
      "type": "function"
    },
    {
      "inputs": [],
      "payable": false,
      "stateMutability": "nonpayable",
      "type": "constructor"
    },
    {
      "anonymous": false,
      "inputs": [
        {
          "indexed": true,
          "name": "addr",
          "type": "address"
        },
        {
          "indexed": false,
          "name": "display",
          "type": "string"
        }
      ],
      "name": "DisplayChanged",
      "type": "event"
    },
    {
      "anonymous": false,
      "inputs": [
        {
          "indexed": false,
          "name": "addr",
          "type": "address"
        },
        {
          "indexed": false,
          "name": "roleName",
          "type": "string"
        }
      ],
      "name": "RoleAdded",
      "type": "event"
    },
    {
      "anonymous": false,
      "inputs": [
        {
          "indexed": false,
          "name": "addr",
          "type": "address"
        },
        {
          "indexed": false,
          "name": "roleName",
          "type": "string"
        }
      ],
      "name": "RoleRemoved",
      "type": "event"
    },
    {
      "anonymous": false,
      "inputs": [
        {
          "indexed": false,
          "name": "roleName",
          "type": "string"
        }
      ],
      "name": "NewSupportedRole",
      "type": "event"
    },
    {
      "constant": true,
      "inputs": [
        {
          "name": "user",
          "type": "address"
        }
      ],
      "name": "userExists",
      "outputs": [
        {
          "name": "",
          "type": "bool"
        }
      ],
      "payable": false,
      "stateMutability": "view",
      "type": "function"
    },
    {
      "constant": true,
      "inputs": [
        {
          "name": "role",
          "type": "string"
        }
      ],
      "name": "roleExists",
      "outputs": [
        {
          "name": "",
          "type": "bool"
        }
      ],
      "payable": false,
      "stateMutability": "view",
      "type": "function"
    },
    {
      "constant": true,
      "inputs": [
        {
          "name": "_role",
          "type": "string"
        }
      ],
      "name": "getUserCountByRole",
      "outputs": [
        {
          "name": "",
          "type": "uint256"
        }
      ],
      "payable": false,
      "stateMutability": "view",
      "type": "function"
    },
    {
      "constant": true,
      "inputs": [
        {
          "name": "_operator",
          "type": "address"
        },
        {
          "name": "_role",
          "type": "string"
        }
      ],
      "name": "checkRole",
      "outputs": [],
      "payable": false,
      "stateMutability": "view",
      "type": "function"
    },
    {
      "constant": false,
      "inputs": [
        {
          "name": "_role",
          "type": "string"
        }
      ],
      "name": "addUserRole",
      "outputs": [],
      "payable": false,
      "stateMutability": "nonpayable",
      "type": "function"
    },
    {
      "constant": false,
      "inputs": [
        {
          "name": "user",
          "type": "address"
        },
        {
          "name": "roleName",
          "type": "string"
        }
      ],
      "name": "grantRole",
      "outputs": [],
      "payable": false,
      "stateMutability": "nonpayable",
      "type": "function"
    },
    {
      "constant": true,
      "inputs": [
        {
          "name": "_operator",
          "type": "address"
        },
        {
          "name": "_role",
          "type": "string"
        }
      ],
      "name": "hasRole",
      "outputs": [
        {
          "name": "",
          "type": "bool"
        }
      ],
      "payable": false,
      "stateMutability": "view",
      "type": "function"
    },
    {
      "constant": false,
      "inputs": [
        {
          "name": "user",
          "type": "address"
        },
        {
          "name": "roleName",
          "type": "string"
        }
      ],
      "name": "revokeRole",
      "outputs": [],
      "payable": false,
      "stateMutability": "nonpayable",
      "type": "function"
    },
    {
      "constant": false,
      "inputs": [
        {
          "name": "_addr",
          "type": "address"
        },
        {
          "name": "_display",
          "type": "string"
        },
        {
          "name": "_roles",
          "type": "uint256"
        }
      ],
      "name": "newUser",
      "outputs": [],
      "payable": false,
      "stateMutability": "nonpayable",
      "type": "function"
    },
    {
      "constant": true,
      "inputs": [],
      "name": "getSupportedRolesCount",
      "outputs": [
        {
          "name": "",
          "type": "uint256"
        }
      ],
      "payable": false,
      "stateMutability": "view",
      "type": "function"
    },
    {
      "constant": true,
      "inputs": [],
      "name": "getUserCount",
      "outputs": [
        {
          "name": "",
          "type": "uint256"
        }
      ],
      "payable": false,
      "stateMutability": "view",
      "type": "function"
    },
    {
      "constant": true,
      "inputs": [],
      "name": "getUsers",
      "outputs": [
        {
          "name": "",
          "type": "address[]"
        }
      ],
      "payable": false,
      "stateMutability": "view",
      "type": "function"
    },
    {
      "constant": true,
      "inputs": [
        {
          "name": "_addr",
          "type": "address"
        }
      ],
      "name": "getUserDisplay",
      "outputs": [
        {
          "name": "",
          "type": "string"
        }
      ],
      "payable": false,
      "stateMutability": "view",
      "type": "function"
    },
    {
      "constant": true,
      "inputs": [
        {
          "name": "_addr",
          "type": "address"
        }
      ],
      "name": "getUserRoleBitmask",
      "outputs": [
        {
          "name": "",
          "type": "uint256"
        }
      ],
      "payable": false,
      "stateMutability": "view",
      "type": "function"
    },
    {
      "constant": false,
      "inputs": [
        {
          "name": "_addr",
          "type": "address"
        },
        {
          "name": "_newBitmask",
          "type": "uint256"
        }
      ],
      "name": "setUserRoles",
      "outputs": [
        {
          "name": "",
          "type": "uint256"
        }
      ],
      "payable": false,
      "stateMutability": "nonpayable",
      "type": "function"
    },
    {
      "constant": false,
      "inputs": [
        {
          "name": "_addr",
          "type": "address"
        },
        {
          "name": "_display",
          "type": "string"
        },
        {
          "name": "_roles",
          "type": "uint256"
        }
      ],
      "name": "setUser",
      "outputs": [],
      "payable": false,
      "stateMutability": "nonpayable",
      "type": "function"
    },
    {
      "constant": false,
      "inputs": [
        {
          "name": "_addr",
          "type": "address"
        },
        {
          "name": "_display",
          "type": "string"
        }
      ],
      "name": "setUserDisplay",
      "outputs": [],
      "payable": false,
      "stateMutability": "nonpayable",
      "type": "function"
    }
  ],
  "bytecode": "0x60806040523480156200001157600080fd5b50600160026040518060400160405280600a81526020017f726261635f61646d696e000000000000000000000000000000000000000000008152506040518082805190602001908083835b602083106200008157805182526020820191506020810190506020830392506200005c565b6001836020036101000a038019825116818451168082178552505050505050905001915050908152602001604051809103902060006101000a81548160ff02191690831515021790555060046040518060400160405280600a81526020017f726261635f61646d696e0000000000000000000000000000000000000000000081525090806001815401808255809150509060018203906000526020600020016000909192909190915090805190602001906200013f9291906200050b565b5050600060036040518060400160405280600a81526020017f726261635f61646d696e000000000000000000000000000000000000000000008152506040518082805190602001908083835b60208310620001b057805182526020820191506020810190506020830392506200018b565b6001836020036101000a038019825116818451168082178552505050505050905001915050908152602001604051809103902060006101000a81548160ff021916908360ff16021790555060013390806001815401808255809150509060018203906000526020600020016000909192909190916101000a81548173ffffffffffffffffffffffffffffffffffffffff021916908373ffffffffffffffffffffffffffffffffffffffff160217905550506200026b62000592565b60405180606001604052806001151581526020016040518060400160405280601081526020017f436f6e74726163742063726561746f7200000000000000000000000000000000815250815260200160018152509050806000803373ffffffffffffffffffffffffffffffffffffffff1673ffffffffffffffffffffffffffffffffffffffff16815260200190815260200160002060008201518160000160006101000a81548160ff02191690831515021790555060208201518160010190805190602001906200033e929190620005b5565b506040820151816002015590505060056040518060400160405280600a81526020017f726261635f61646d696e000000000000000000000000000000000000000000008152506040518082805190602001908083835b60208310620003b9578051825260208201915060208101905060208303925062000394565b6001836020036101000a0380198251168184511680821785525050505050509050019150509081526020016040518091039020600081548092919060010191905055507fbfec83d64eaa953f2708271a023ab9ee82057f8f3578d548c1a4ba0b5b700489336040518060400160405280600a81526020017f726261635f61646d696e00000000000000000000000000000000000000000000815250604051808373ffffffffffffffffffffffffffffffffffffffff1673ffffffffffffffffffffffffffffffffffffffff16815260200180602001828103825283818151815260200191508051906020019080838360005b83811015620004c8578082015181840152602081019050620004ab565b50505050905090810190601f168015620004f65780820380516001836020036101000a031916815260200191505b50935050505060405180910390a15062000664565b828054600181600116156101000203166002900490600052602060002090601f016020900481019282601f106200054e57805160ff19168380011785556200057f565b828001600101855582156200057f579182015b828111156200057e57825182559160200191906001019062000561565b5b5090506200058e91906200063c565b5090565b604051806060016040528060001515815260200160608152602001600081525090565b828054600181600116156101000203166002900490600052602060002090601f016020900481019282601f10620005f857805160ff191683800117855562000629565b8280016001018555821562000629579182015b82811115620006285782518255916020019190600101906200060b565b5b5090506200063891906200063c565b5090565b6200066191905b808211156200065d57600081600090555060010162000643565b5090565b90565b612e0680620006746000396000f3fe608060405234801561001057600080fd5b506004361061012b5760003560e01c8063a0997b66116100ad578063c1f64cb011610071578063c1f64cb014610983578063c8c5139d14610a2a578063d00cce4114610b05578063e6bd0eca14610bd8578063e7ca438d14610c7b5761012b565b8063a0997b6614610704578063af431f0314610787578063b5cb15f71461086c578063ba1ccbee1461088a578063bddba4eb146108a85761012b565b8063217fe6c6116100f4578063217fe6c6146103f9578063373e441c146104ec578063650e85af14610565578063864d1d72146105c75780639f4216e8146106965761012b565b8062ce8e3e14610130578063087895211461018f5780630988ca8c1461026a5780630e43d7c3146103455780630e666e491461039d575b600080fd5b610138610d38565b6040518080602001828103825283818151815260200191508051906020019060200280838360005b8381101561017b578082015181840152602081019050610160565b505050509050019250505060405180910390f35b610268600480360360408110156101a557600080fd5b81019080803573ffffffffffffffffffffffffffffffffffffffff169060200190929190803590602001906401000000008111156101e257600080fd5b8201836020820111156101f457600080fd5b8035906020019184600183028401116401000000008311171561021657600080fd5b91908080601f016020809104026020016040519081016040528093929190818152602001838380828437600081840152601f19601f820116905080830192505050505050509192919290505050610dc6565b005b6103436004803603604081101561028057600080fd5b81019080803573ffffffffffffffffffffffffffffffffffffffff169060200190929190803590602001906401000000008111156102bd57600080fd5b8201836020820111156102cf57600080fd5b803590602001918460018302840111640100000000831117156102f157600080fd5b91908080601f016020809104026020016040519081016040528093929190818152602001838380828437600081840152601f19601f82011690508083019250505050505050919291929050505061126f565b005b6103876004803603602081101561035b57600080fd5b81019080803573ffffffffffffffffffffffffffffffffffffffff1690602001909291905050506112ef565b6040518082815260200191505060405180910390f35b6103df600480360360208110156103b357600080fd5b81019080803573ffffffffffffffffffffffffffffffffffffffff16906020019092919050505061133a565b604051808215151515815260200191505060405180910390f35b6104d26004803603604081101561040f57600080fd5b81019080803573ffffffffffffffffffffffffffffffffffffffff1690602001909291908035906020019064010000000081111561044c57600080fd5b82018360208201111561045e57600080fd5b8035906020019184600183028401116401000000008311171561048057600080fd5b91908080601f016020809104026020016040519081016040528093929190818152602001838380828437600081840152601f19601f820116905080830192505050505050509192919290505050611392565b604051808215151515815260200191505060405180910390f35b6105636004803603602081101561050257600080fd5b810190808035906020019064010000000081111561051f57600080fd5b82018360208201111561053157600080fd5b8035906020019184600183028401116401000000008311171561055357600080fd5b90919293919293905050506114ef565b005b6105b16004803603604081101561057b57600080fd5b81019080803573ffffffffffffffffffffffffffffffffffffffff16906020019092919080359060200190929190505050611812565b6040518082815260200191505060405180910390f35b610680600480360360208110156105dd57600080fd5b81019080803590602001906401000000008111156105fa57600080fd5b82018360208201111561060c57600080fd5b8035906020019184600183028401116401000000008311171561062e57600080fd5b91908080601f016020809104026020016040519081016040528093929190818152602001838380828437600081840152601f19601f820116905080830192505050505050509192919290505050611ebd565b6040518082815260200191505060405180910390f35b6106c2600480360360208110156106ac57600080fd5b8101908080359060200190929190505050611f30565b604051808273ffffffffffffffffffffffffffffffffffffffff1673ffffffffffffffffffffffffffffffffffffffff16815260200191505060405180910390f35b61070c611f6c565b6040518080602001828103825283818151815260200191508051906020019080838360005b8381101561074c578082015181840152602081019050610731565b50505050905090810190601f1680156107795780820380516001836020036101000a031916815260200191505b509250505060405180910390f35b61086a6004803603606081101561079d57600080fd5b81019080803573ffffffffffffffffffffffffffffffffffffffff169060200190929190803590602001906401000000008111156107da57600080fd5b8201836020820111156107ec57600080fd5b8035906020019184600183028401116401000000008311171561080e57600080fd5b91908080601f016020809104026020016040519081016040528093929190818152602001838380828437600081840152601f19601f82011690508083019250505050505050919291929080359060200190929190505050611fa5565b005b61087461207b565b6040518082815260200191505060405180910390f35b610892612088565b6040518082815260200191505060405180910390f35b610981600480360360408110156108be57600080fd5b81019080803573ffffffffffffffffffffffffffffffffffffffff169060200190929190803590602001906401000000008111156108fb57600080fd5b82018360208201111561090d57600080fd5b8035906020019184600183028401116401000000008311171561092f57600080fd5b91908080601f016020809104026020016040519081016040528093929190818152602001838380828437600081840152601f19601f820116905080830192505050505050509192919290505050612095565b005b6109af6004803603602081101561099957600080fd5b8101908080359060200190929190505050612445565b6040518080602001828103825283818151815260200191508051906020019080838360005b838110156109ef5780820151818401526020810190506109d4565b50505050905090810190601f168015610a1c5780820380516001836020036101000a031916815260200191505b509250505060405180910390f35b610b0360048036036040811015610a4057600080fd5b81019080803573ffffffffffffffffffffffffffffffffffffffff16906020019092919080359060200190640100000000811115610a7d57600080fd5b820183602082011115610a8f57600080fd5b80359060200191846001830284011164010000000083111715610ab157600080fd5b91908080601f016020809104026020016040519081016040528093929190818152602001838380828437600081840152601f19601f8201169050808301925050505050505091929192905050506124fe565b005b610bbe60048036036020811015610b1b57600080fd5b8101908080359060200190640100000000811115610b3857600080fd5b820183602082011115610b4a57600080fd5b80359060200191846001830284011164010000000083111715610b6c57600080fd5b91908080601f016020809104026020016040519081016040528093929190818152602001838380828437600081840152601f19601f8201169050808301925050505050505091929192905050506126c7565b604051808215151515815260200191505060405180910390f35b610c7960048036036060811015610bee57600080fd5b81019080803573ffffffffffffffffffffffffffffffffffffffff16906020019092919080359060200190640100000000811115610c2b57600080fd5b820183602082011115610c3d57600080fd5b80359060200191846001830284011164010000000083111715610c5f57600080fd5b909192939192939080359060200190929190505050612747565b005b610cbd60048036036020811015610c9157600080fd5b81019080803573ffffffffffffffffffffffffffffffffffffffff169060200190929190505050612a8d565b6040518080602001828103825283818151815260200191508051906020019080838360005b83811015610cfd578082015181840152602081019050610ce2565b50505050905090810190601f168015610d2a5780820380516001836020036101000a031916815260200191505b509250505060405180910390f35b60606001805480602002602001604051908101604052809291908181526020018280548015610dbc57602002820191906000526020600020905b8160009054906101000a900473ffffffffffffffffffffffffffffffffffffffff1673ffffffffffffffffffffffffffffffffffffffff1681526020019060010190808311610d72575b5050505050905090565b610e05336040518060400160405280600a81526020017f726261635f61646d696e0000000000000000000000000000000000000000000081525061126f565b81610e0f8161133a565b610e81576040517f08c379a00000000000000000000000000000000000000000000000000000000081526004018080602001828103825260138152602001807f5573657220646f6573206e6f742065786973740000000000000000000000000081525060200191505060405180910390fd5b81610e8b816126c7565b610efd576040517f08c379a00000000000000000000000000000000000000000000000000000000081526004018080602001828103825260138152602001807f526f6c6520646f6573206e6f742065786973740000000000000000000000000081525060200191505060405180910390fd5b610f078484611392565b15611172576005836040518082805190602001908083835b60208310610f425780518252602082019150602081019050602083039250610f1f565b6001836020036101000a0380198251168184511680821785525050505050509050019150509081526020016040518091039020600081548092919060019003919050555060008060008673ffffffffffffffffffffffffffffffffffffffff1673ffffffffffffffffffffffffffffffffffffffff16815260200190815260200160002060020154905060006003856040518082805190602001908083835b602083106110045780518252602082019150602081019050602083039250610fe1565b6001836020036101000a038019825116818451168082178552505050505050905001915050908152602001604051809103902060009054906101000a900460ff16905061105a8183612b7090919063ffffffff16565b6000808873ffffffffffffffffffffffffffffffffffffffff1673ffffffffffffffffffffffffffffffffffffffff168152602001908152602001600020600201819055507fd211483f91fc6eff862467f8de606587a30c8fc9981056f051b897a418df803a8686604051808373ffffffffffffffffffffffffffffffffffffffff1673ffffffffffffffffffffffffffffffffffffffff16815260200180602001828103825283818151815260200191508051906020019080838360005b83811015611134578082015181840152602081019050611119565b50505050905090810190601f1680156111615780820380516001836020036101000a031916815260200191505b50935050505060405180910390a150505b5050600060056040518060400160405280600a81526020017f726261635f61646d696e000000000000000000000000000000000000000000008152506040518082805190602001908083835b602083106111e157805182526020820191506020810190506020830392506111be565b6001836020036101000a0380198251168184511680821785525050505050509050019150509081526020016040518091039020541161126b576040517f08c379a0000000000000000000000000000000000000000000000000000000008152600401808060200182810382526050815260200180612d826050913960600191505060405180910390fd5b5050565b6112798282611392565b6112eb576040517f08c379a00000000000000000000000000000000000000000000000000000000081526004018080602001828103825260208152602001807f5573657220646f6573206e6f74206861766520726571756972656420726f6c6581525060200191505060405180910390fd5b5050565b60008060008373ffffffffffffffffffffffffffffffffffffffff1673ffffffffffffffffffffffffffffffffffffffff168152602001908152602001600020600201549050919050565b60008060008373ffffffffffffffffffffffffffffffffffffffff1673ffffffffffffffffffffffffffffffffffffffff16815260200190815260200160002060000160009054906101000a900460ff169050919050565b60008161139e816126c7565b611410576040517f08c379a00000000000000000000000000000000000000000000000000000000081526004018080602001828103825260138152602001807f526f6c6520646f6573206e6f742065786973740000000000000000000000000081525060200191505060405180910390fd5b60008060008673ffffffffffffffffffffffffffffffffffffffff1673ffffffffffffffffffffffffffffffffffffffff16815260200190815260200160002060020154905060006003856040518082805190602001908083835b6020831061148e578051825260208201915060208101905060208303925061146b565b6001836020036101000a038019825116818451168082178552505050505050905001915050908152602001604051809103902060009054906101000a900460ff1690506114e48183612b8a90919063ffffffff16565b935050505092915050565b61152e336040518060400160405280600a81526020017f726261635f61646d696e0000000000000000000000000000000000000000000081525061126f565b6000600480549050905061010081106115af576040517f08c379a000000000000000000000000000000000000000000000000000000000815260040180806020018281038252601e8152602001807f43616e6e6f7420616464206d6f7265207468616e2032353620726f6c6573000081525060200191505060405180910390fd5b60008383905011611628576040517f08c379a00000000000000000000000000000000000000000000000000000000081526004018080602001828103825260168152602001807f526f6c65206d757374206265206e6f6e2d656d7074790000000000000000000081525060200191505060405180910390fd5b61167583838080601f016020809104026020016040519081016040528093929190818152602001838380828437600081840152601f19601f820116905080830192505050505050506126c7565b156116e8576040517f08c379a00000000000000000000000000000000000000000000000000000000081526004018080602001828103825260138152602001807f526f6c6520616c7265616479206578697374730000000000000000000000000081525060200191505060405180910390fd5b600160028484604051808383808284378083019250505092505050908152602001604051809103902060006101000a81548160ff0219169083151502179055506004838390918060018154018082558091505090600182039060005260206000200160009091929390919293909192909192509190611768929190612bb9565b50508060038484604051808383808284378083019250505092505050908152602001604051809103902060006101000a81548160ff021916908360ff1602179055507f73f400dc938ab740091a5472ddeea4415524efd651c787c43fdba981bf11133b838360405180806020018281038252848482818152602001925080828437600081840152601f19601f820116905080830192505050935050505060405180910390a1505050565b6000611853336040518060400160405280600a81526020017f726261635f61646d696e0000000000000000000000000000000000000000000081525061126f565b8261185d8161133a565b6118cf576040517f08c379a00000000000000000000000000000000000000000000000000000000081526004018080602001828103825260138152602001807f5573657220646f6573206e6f742065786973740000000000000000000000000081525060200191505060405180910390fd5b600060048054905090506101008111156118e557fe5b6101008110156119735760006001826001901b03905080851115611971576040517f08c379a00000000000000000000000000000000000000000000000000000000081526004018080602001828103825260198152602001807f4269746d61736b2076616c756520697320746f6f20686967680000000000000081525060200191505060405180910390fd5b505b60008060008773ffffffffffffffffffffffffffffffffffffffff1673ffffffffffffffffffffffffffffffffffffffff168152602001908152602001600020600201549050846000808873ffffffffffffffffffffffffffffffffffffffff1673ffffffffffffffffffffffffffffffffffffffff1681526020019081526020016000206002018190555060008090505b82811015611db9576000611a228288612b8a90919063ffffffff16565b90506000611a398385612b8a90919063ffffffff16565b9050606060048481548110611a4a57fe5b906000526020600020018054600181600116156101000203166002900480601f016020809104026020016040519081016040528092919081815260200182805460018160011615610100020316600290048015611ae85780601f10611abd57610100808354040283529160200191611ae8565b820191906000526020600020905b815481529060010190602001808311611acb57829003601f168201915b50505050509050828015611afa575081155b15611c4d576005816040518082805190602001908083835b60208310611b355780518252602082019150602081019050602083039250611b12565b6001836020036101000a0380198251168184511680821785525050505050509050019150509081526020016040518091039020600081548092919060010191905055507fbfec83d64eaa953f2708271a023ab9ee82057f8f3578d548c1a4ba0b5b7004898a82604051808373ffffffffffffffffffffffffffffffffffffffff1673ffffffffffffffffffffffffffffffffffffffff16815260200180602001828103825283818151815260200191508051906020019080838360005b83811015611c0d578082015181840152602081019050611bf2565b50505050905090810190601f168015611c3a5780820380516001836020036101000a031916815260200191505b50935050505060405180910390a1611da9565b82158015611c585750815b15611da8576005816040518082805190602001908083835b60208310611c935780518252602082019150602081019050602083039250611c70565b6001836020036101000a038019825116818451168082178552505050505050905001915050908152602001604051809103902060008154809291906001900391905055507fd211483f91fc6eff862467f8de606587a30c8fc9981056f051b897a418df803a8a82604051808373ffffffffffffffffffffffffffffffffffffffff1673ffffffffffffffffffffffffffffffffffffffff16815260200180602001828103825283818151815260200191508051906020019080838360005b83811015611d6c578082015181840152602081019050611d51565b50505050905090810190601f168015611d995780820380516001836020036101000a031916815260200191505b50935050505060405180910390a15b5b5050508080600101915050611a05565b50849350505050600060056040518060400160405280600a81526020017f726261635f61646d696e000000000000000000000000000000000000000000008152506040518082805190602001908083835b60208310611e2d5780518252602082019150602081019050602083039250611e0a565b6001836020036101000a03801982511681845116808217855250505050505090500191505090815260200160405180910390205411611eb7576040517f08c379a0000000000000000000000000000000000000000000000000000000008152600401808060200182810382526050815260200180612d826050913960600191505060405180910390fd5b92915050565b60006005826040518082805190602001908083835b60208310611ef55780518252602082019150602081019050602083039250611ed2565b6001836020036101000a0380198251168184511680821785525050505050509050019150509081526020016040518091039020549050919050565b60018181548110611f3d57fe5b906000526020600020016000915054906101000a900473ffffffffffffffffffffffffffffffffffffffff1681565b6040518060400160405280600a81526020017f726261635f61646d696e0000000000000000000000000000000000000000000081525081565b611fe4336040518060400160405280600a81526020017f726261635f61646d696e0000000000000000000000000000000000000000000081525061126f565b82611fee8161133a565b612060576040517f08c379a00000000000000000000000000000000000000000000000000000000081526004018080602001828103825260138152602001807f5573657220646f6573206e6f742065786973740000000000000000000000000081525060200191505060405180910390fd5b61206a84846124fe565b6120748483611812565b5050505050565b6000600180549050905090565b6000600480549050905090565b6120d4336040518060400160405280600a81526020017f726261635f61646d696e0000000000000000000000000000000000000000000081525061126f565b816120de8161133a565b612150576040517f08c379a00000000000000000000000000000000000000000000000000000000081526004018080602001828103825260138152602001807f5573657220646f6573206e6f742065786973740000000000000000000000000081525060200191505060405180910390fd5b8161215a816126c7565b6121cc576040517f08c379a00000000000000000000000000000000000000000000000000000000081526004018080602001828103825260138152602001807f526f6c6520646f6573206e6f742065786973740000000000000000000000000081525060200191505060405180910390fd5b6121d68484611392565b61243f576005836040518082805190602001908083835b6020831061221057805182526020820191506020810190506020830392506121ed565b6001836020036101000a03801982511681845116808217855250505050505090500191505090815260200160405180910390206000815480929190600101919050555060008060008673ffffffffffffffffffffffffffffffffffffffff1673ffffffffffffffffffffffffffffffffffffffff16815260200190815260200160002060020154905060006003856040518082805190602001908083835b602083106122d157805182526020820191506020810190506020830392506122ae565b6001836020036101000a038019825116818451168082178552505050505050905001915050908152602001604051809103902060009054906101000a900460ff1690506123278183612ba090919063ffffffff16565b6000808873ffffffffffffffffffffffffffffffffffffffff1673ffffffffffffffffffffffffffffffffffffffff168152602001908152602001600020600201819055507fbfec83d64eaa953f2708271a023ab9ee82057f8f3578d548c1a4ba0b5b7004898686604051808373ffffffffffffffffffffffffffffffffffffffff1673ffffffffffffffffffffffffffffffffffffffff16815260200180602001828103825283818151815260200191508051906020019080838360005b838110156124015780820151818401526020810190506123e6565b50505050905090810190601f16801561242e5780820380516001836020036101000a031916815260200191505b50935050505060405180910390a150505b50505050565b6004818154811061245257fe5b906000526020600020016000915090508054600181600116156101000203166002900480601f0160208091040260200160405190810160405280929190818152602001828054600181600116156101000203166002900480156124f65780601f106124cb576101008083540402835291602001916124f6565b820191906000526020600020905b8154815290600101906020018083116124d957829003601f168201915b505050505081565b61253d336040518060400160405280600a81526020017f726261635f61646d696e0000000000000000000000000000000000000000000081525061126f565b816125478161133a565b6125b9576040517f08c379a00000000000000000000000000000000000000000000000000000000081526004018080602001828103825260138152602001807f5573657220646f6573206e6f742065786973740000000000000000000000000081525060200191505060405180910390fd5b816000808573ffffffffffffffffffffffffffffffffffffffff1673ffffffffffffffffffffffffffffffffffffffff168152602001908152602001600020600101908051906020019061260e929190612c39565b508273ffffffffffffffffffffffffffffffffffffffff167fc41cf79d0bd803c363c5d71913bea40dcc929ba7c8d465c7f54841b84cd3d47c836040518080602001828103825283818151815260200191508051906020019080838360005b8381101561268857808201518184015260208101905061266d565b50505050905090810190601f1680156126b55780820380516001836020036101000a031916815260200191505b509250505060405180910390a2505050565b60006002826040518082805190602001908083835b602083106126ff57805182526020820191506020810190506020830392506126dc565b6001836020036101000a038019825116818451168082178552505050505050905001915050908152602001604051809103902060009054906101000a900460ff169050919050565b612786336040518060400160405280600a81526020017f726261635f61646d696e0000000000000000000000000000000000000000000081525061126f565b600073ffffffffffffffffffffffffffffffffffffffff168473ffffffffffffffffffffffffffffffffffffffff161415612829576040517f08c379a000000000000000000000000000000000000000000000000000000000815260040180806020018281038252600f8152602001807f496e76616c69642061646472657373000000000000000000000000000000000081525060200191505060405180910390fd5b6128328461133a565b156128a5576040517f08c379a00000000000000000000000000000000000000000000000000000000081526004018080602001828103825260138152602001807f5573657220616c7265616479206578697374730000000000000000000000000081525060200191505060405180910390fd5b60018490806001815401808255809150509060018203906000526020600020016000909192909190916101000a81548173ffffffffffffffffffffffffffffffffffffffff021916908373ffffffffffffffffffffffffffffffffffffffff16021790555050612913612cb9565b604051806060016040528060011515815260200185858080601f016020809104026020016040519081016040528093929190818152602001838380828437600081840152601f19601f82011690508083019250505050505050815260200160008152509050806000808773ffffffffffffffffffffffffffffffffffffffff1673ffffffffffffffffffffffffffffffffffffffff16815260200190815260200160002060008201518160000160006101000a81548160ff02191690831515021790555060208201518160010190805190602001906129f3929190612cdc565b50604082015181600201559050508473ffffffffffffffffffffffffffffffffffffffff167fc41cf79d0bd803c363c5d71913bea40dcc929ba7c8d465c7f54841b84cd3d47c858560405180806020018281038252848482818152602001925080828437600081840152601f19601f820116905080830192505050935050505060405180910390a2612a858583611812565b505050505050565b60606000808373ffffffffffffffffffffffffffffffffffffffff1673ffffffffffffffffffffffffffffffffffffffff1681526020019081526020016000206001018054600181600116156101000203166002900480601f016020809104026020016040519081016040528092919081815260200182805460018160011615610100020316600290048015612b645780601f10612b3957610100808354040283529160200191612b64565b820191906000526020600020905b815481529060010190602001808311612b4757829003601f168201915b50505050509050919050565b6000808260ff166001901b19905080841691505092915050565b6000808260ff166001901b841611905092915050565b6000808260ff166001901b905080841791505092915050565b828054600181600116156101000203166002900490600052602060002090601f016020900481019282601f10612bfa57803560ff1916838001178555612c28565b82800160010185558215612c28579182015b82811115612c27578235825591602001919060010190612c0c565b5b509050612c359190612d5c565b5090565b828054600181600116156101000203166002900490600052602060002090601f016020900481019282601f10612c7a57805160ff1916838001178555612ca8565b82800160010185558215612ca8579182015b82811115612ca7578251825591602001919060010190612c8c565b5b509050612cb59190612d5c565b5090565b604051806060016040528060001515815260200160608152602001600081525090565b828054600181600116156101000203166002900490600052602060002090601f016020900481019282601f10612d1d57805160ff1916838001178555612d4b565b82800160010185558215612d4b579182015b82811115612d4a578251825591602001919060010190612d2f565b5b509050612d589190612d5c565b5090565b612d7e91905b80821115612d7a576000816000905550600101612d62565b5090565b9056fe43616e6e6f742064656c657465206c6173742061646d696e2e204372656174652064756d6d7920307830302e2e30302061646d696e206966206e6f2061646d696e73206172652072657175697265642ea265627a7a723058201ea0362705d0d7f04c0b4d020284ec1abd5e79837c45e8bec49770e2a045adab64736f6c634300050a0032",
  "source": "pragma solidity 0.5.10;\n\nimport \"./Bitmask.sol\";\n\n/**\n* @title Role-Based Access Control (RBAC) supporting bitmasks, for getting/setting multiple roles atomically\n* @author TruSet\n* @dev Use a bitmask to allow getting and setting of multiple roles in a single\n*      transaction, to maintain lists/counts of users and roles, and to store an optional display name\n*      for each user.\n*\n*      Originally based on an openzeppelin implementation, this implements a similar interface using bitmasks\n*      natively\n*\n*      A maximum of 256 roles are supported, and roles cannot be removed once added.\n* \n*      Only supported roles can be queried, because this makes us \"fail fast\" if we make typos and it\n*      helps us to alleviate concerns around \"look-a-like\" strings. (See\n*      https://github.com/OpenZeppelin/openzeppelin-solidity/issues/1090)\n*/\ncontract BitmaskRBAC {\n  using Bitmask for uint256;\n\n  event DisplayChanged(address indexed addr, string display);\n  event RoleAdded(address addr, string roleName);\n  event RoleRemoved(address addr, string roleName);\n  event NewSupportedRole(string roleName);\n\n  struct User {\n    bool exists;\n    string displayName;\n    uint256 roleBitmask;\n  }\n\n  // This role is special. It is used to administer the RBAC itself. There is always at least one user with this role.\n  string public constant ROLE_RBAC_ADMIN = \"rbac_admin\";\n\n  // Users cannot be deleted, but their roles can be revoked. If/when we need a way to delete users,\n  // we'll need to do that carefully to ensure consistency with the user roles. E.g. we could also\n  // check for user existence before every call to checkRole, or we could iterate through all the roles\n  // to make sure none are assigned before deleting a user.\n  mapping(address => User) users;\n  address[] public userList;\n\n  mapping(string => bool) supportedRoles;\n  mapping(string => uint8) roleBitIndices;\n  string[] public supportedRoleList;\n\n  mapping(string => uint) userCountsByRole;\n\n  constructor()\n  public\n  {\n    supportedRoles[ROLE_RBAC_ADMIN] = true;\n    supportedRoleList.push(ROLE_RBAC_ADMIN);\n    roleBitIndices[ROLE_RBAC_ADMIN] = 0;\n\n    userList.push(msg.sender);\n\n    User memory u =  User(true, \"Contract creator\", 2**0);\n    users[msg.sender] = u;\n    userCountsByRole[ROLE_RBAC_ADMIN]++;\n    emit RoleAdded(msg.sender, ROLE_RBAC_ADMIN);\n  }\n  \n  modifier onlyRbacAdmin()\n  {\n    checkRole(msg.sender, ROLE_RBAC_ADMIN);\n    _;\n  }\n\n  modifier doesNotDeleteLastAdmin()\n  {\n    _;\n    require(userCountsByRole[ROLE_RBAC_ADMIN] > 0, \"Cannot delete last admin. Create dummy 0x00..00 admin if no admins are required.\");\n  }\n\n  modifier checkUserExists(address user)\n  {\n    require(userExists(user), \"User does not exist\");\n    _;\n  }\n\n  function userExists(address user) view public returns (bool) {\n    return users[user].exists;\n  }\n\n  modifier checkRoleExists(string memory role)\n  {\n    require(roleExists(role), \"Role does not exist\");\n    _;\n  }\n\n  function roleExists(string memory role) view public returns (bool) {\n    return supportedRoles[role];\n  }\n\n  function getUserCountByRole(string memory _role) view public returns (uint) {\n    return userCountsByRole[_role];\n  }\n\n  function checkRole(address _operator, string memory _role)\n  public view {\n    require(hasRole(_operator, _role), \"User does not have required role\");\n  }\n\n  function addUserRole(string calldata _role)\n  onlyRbacAdmin\n  external {\n    uint numRoles = supportedRoleList.length;\n    require(numRoles < 256, \"Cannot add more than 256 roles\"); // because we use a uint256 as a bitmask\n    require((bytes)(_role).length > 0, \"Role must be non-empty\");\n    require(!roleExists(_role), \"Role already exists\");\n\n    supportedRoles[_role] = true;\n    supportedRoleList.push(_role);\n    roleBitIndices[_role] = uint8(numRoles);\n    emit NewSupportedRole(_role);\n  }\n\n  function grantRole(address user, string memory roleName)\n  onlyRbacAdmin\n  checkUserExists(user)\n  checkRoleExists(roleName)\n  public {\n    if (!hasRole(user, roleName)) {\n      userCountsByRole[roleName]++;\n\n      uint256 bitmask = users[user].roleBitmask;\n      uint8 bitIndex = roleBitIndices[roleName];\n      users[user].roleBitmask = bitmask.setBit(bitIndex);\n      emit RoleAdded(user, roleName);\n    }\n  }\n\n  // We override the default hasRole implementation to insist that the role is one we know about. This\n  // causes us to fail fast if we make typos, and also alleviates some of the concerns around \"look-a-like\"\n  // strings. (See https://github.com/OpenZeppelin/openzeppelin-solidity/issues/1090)\n  /**\n   * @dev determine if addr has role\n   * @param _operator address\n   * @param _role the name of the role\n   * @return bool\n   */\n  function hasRole(address _operator, string memory _role)\n    view\n    public\n    checkRoleExists(_role)\n    returns (bool)\n  {\n    uint256 bitmask = users[_operator].roleBitmask;\n    uint8 bitIndex = roleBitIndices[_role];\n    return bitmask.hasBit(bitIndex);\n  }\n\n  function revokeRole(address user, string memory roleName)\n  onlyRbacAdmin\n  doesNotDeleteLastAdmin\n  checkUserExists(user)\n  checkRoleExists(roleName)\n  public {\n    if (hasRole(user, roleName)) {\n      userCountsByRole[roleName]--;\n\n      uint256 bitmask = users[user].roleBitmask;\n      uint8 bitIndex = roleBitIndices[roleName];\n      users[user].roleBitmask = bitmask.unsetBit(bitIndex);\n      emit RoleRemoved(user, roleName);\n    }\n  }\n\n  function newUser(address _addr, string calldata _display, uint _roles) external\n  onlyRbacAdmin\n  {\n    require(_addr != address(0), \"Invalid address\");\n    require(!userExists(_addr), \"User already exists\");\n\n    userList.push(_addr);\n    User memory u =  User(true, _display, 0);\n    users[_addr] = u;\n    emit DisplayChanged(_addr, _display);\n    setUserRoles(_addr, _roles);\n  }\n\n  function getSupportedRolesCount() public view returns(uint) {\n    return supportedRoleList.length;\n  }\n\n  function getUserCount() public view returns(uint) {\n    return userList.length;\n  }\n\n  function getUsers() view public returns (address[] memory) {\n    return userList;\n  }\n\n  function getUserDisplay(address _addr) view public returns (string memory) {\n    return users[_addr].displayName;\n  }\n\n  function getUserRoleBitmask(address _addr) view public returns (uint) {\n    return users[_addr].roleBitmask;\n  }\n\n  function setUserRoles(address _addr, uint _newBitmask)\n  onlyRbacAdmin\n  doesNotDeleteLastAdmin\n  checkUserExists(_addr)\n  public returns (uint) {\n    uint numRoles = supportedRoleList.length;\n    assert(numRoles <= 256);\n    if (numRoles < 256) {\n      // Only need to check an upper bound if it's less than the max uint256 value\n      uint maxMeaningfulBitMask = (uint(1) << numRoles) - 1;\n      require(_newBitmask <= maxMeaningfulBitMask, \"Bitmask value is too high\");\n    }\n    uint256 oldBitmask = users[_addr].roleBitmask;\n\n    // Set\n    users[_addr].roleBitmask = _newBitmask;\n\n    // Side effects\n    for (uint i=0; i<numRoles; i++) { // Using a uint8 would overflow and never terminate if we have 256 roles (255++ yields 0) \n      bool shouldHaveRole = _newBitmask.hasBit(uint8(i));\n      bool currentlyHasRole = oldBitmask.hasBit(uint8(i));\n      string memory roleName = supportedRoleList[i];\n\n      if (shouldHaveRole && !currentlyHasRole) {\n        userCountsByRole[roleName]++;\n        emit RoleAdded(_addr, roleName);\n      } else if (!shouldHaveRole && currentlyHasRole) {\n        userCountsByRole[roleName]--;\n        emit RoleRemoved(_addr, roleName);\n      }\n    }\n\n    return _newBitmask;\n  }\n\n  function setUser(address _addr, string memory _display, uint _roles)\n  onlyRbacAdmin\n  checkUserExists(_addr)\n  public {\n    setUserDisplay(_addr, _display);\n    setUserRoles(_addr, _roles);\n  }\n\n  function setUserDisplay(address _addr, string memory _display) public\n  onlyRbacAdmin\n  checkUserExists(_addr)\n  {\n    users[_addr].displayName = _display;\n    emit DisplayChanged(_addr, _display);\n  }\n}\n",
  "sourcePath": "bitmask-rbac/contracts/BitmaskRBAC.sol",
  "compiler": {
    "name": "solc",
    "version": "0.5.10+commit.5a6ea5b1.Emscripten.clang"
  },
  "schemaVersion": "3.0.22",
  "updatedAt": "2020-02-16T20:39:41.249Z",
  "devdoc": {
    "author": "TruSet",
    "details": "Use a bitmask to allow getting and setting of multiple roles in a single     transaction, to maintain lists/counts of users and roles, and to store an optional display name     for each user. *      Originally based on an openzeppelin implementation, this implements a similar interface using bitmasks     natively *      A maximum of 256 roles are supported, and roles cannot be removed once added.  *      Only supported roles can be queried, because this makes us \"fail fast\" if we make typos and it     helps us to alleviate concerns around \"look-a-like\" strings. (See     https://github.com/OpenZeppelin/openzeppelin-solidity/issues/1090)",
    "methods": {
      "hasRole(address,string)": {
        "details": "determine if addr has role",
        "params": {
          "_operator": "address",
          "_role": "the name of the role"
        },
        "return": "bool"
      }
    },
    "title": "Role-Based Access Control (RBAC) supporting bitmasks, for getting/setting multiple roles atomically"
  },
  "userdoc": {
    "methods": {}
  }
}